:020000040800F2
:1000000000280020D9120008691200086F120008A9
:10001000751200087B120008811200080000000021
:10002000000000000000000000000000871200082F
:1000300093120008000000009F120008AB12000895
:1000400021130008211300082113000821130008C0
:1000500021130008211300082113000821130008B0
:1000600021130008211300082113000821130008A0
:100070002113000821130008211300082113000890
:100080002113000821130008211300082113000880
:100090002113000821130008211300082113000870
:1000A0002113000821130008211300082113000860
:1000B000B9120008211300080000000021130008F5
:1000C00021130008000000000000000021130008B8
:1000D00000000000211300082113000800000000A8
:1000E000211300082113000821130008000000005C
:1000F0000000000000000000000000000000000000
:0C01000000000000000000005FF808F1A3
:10010C0010B5054C237833B9044B13B10448AFF345
:10011C0000800123237010BD30000020000000007F
:10012C006829000808B5034B1BB103490348AFF31A
:10013C00008008BD00000000340000206829000881
:10014C0080B483B000AF164B00221A60154B00220E
:10015C001A60154B00221A6000237B6016E0134ACC
:10016C007B68012142F82310114A7B68012142F877
:10017C002310104A7B68012142F823100E4A7B6839
:10018C00012142F823107B6801337B607B68022BD2
:10019C00E5DD00BF00BF0C37BD4680BC704700BF1B
:1001AC00A4000020A000002078000020880000207F
:1001BC0094000020A80000207C00002080B400AF38
:1001CC00064B1B68012B04D1044B00221A6001233F
:1001DC0000E000231846BD4680BC7047A4000020F8
:1001EC0080B400AF064B1B68012B04D1044B0022DA
:1001FC001A60012300E000231846BD4680BC7047FE
:10020C00A000002080B400AF064B1B68012B04D16A
:10021C00044B00221A60012300E000231846BD465F
:10022C0080BC70477800002080B582B000AF0023FE
:10023C007B6090E04C4A7B6852F823204B497B68EA
:10024C0041F823204A4A7B6852F8232046497B68B0
:10025C0041F823207B68002B0AD10221454801F08C
:10026C0045FB03461946424A7B6842F823101AE0C4
:10027C007B68012B0AD104213E4801F037FB034671
:10028C0019463B4A7B6842F823100CE07B68022B32
:10029C0009D10821374801F029FB03461946344A95
:1002AC007B6842F82310314A7B6852F823202E4990
:1002BC007B6851F823309A424AD12B4A7B6852F81A
:1002CC0023202B497B6851F823309A4240D12A4A8B
:1002DC007B6852F8232026497B6851F823309A42D8
:1002EC0025D0234A7B6852F8232023497B6841F8A8
:1002FC0023201F4A7B6852F82330002B28D17B68BF
:10030C00002B03D11D4B01221A600CE07B68012BE2
:10031C0003D11B4B01221A6005E07B68022B02D132
:10032C00184B01221A60184BC8221A6010E0164BA9
:10033C001B68013B144A1360134B1B68002B07D13D
:10034C000D4A7B68012142F823100F4BC8221A601A
:10035C007B6801337B607B68022B7FF76BAF00BF40
:10036C0000BF0837BD4680BD9400002088000020E7
:10037C00A8000020000801407C000020A400002000
:10038C00A0000020780000200000002080B500AF05
:10039C009C4B1B78042B00F2958201A252F823F09F
:1003AC00C10300083D040008E5050008E906000843
:1003BC009B070008944B1B68012B04D1FFF734FFFB
:1003CC00012000F093FEFFF7F9FE0346012B17D135
:1003DC008C4B01221A70402000F004FD4FF4007089
:1003EC0000F000FD102000F0FDFC802000F0FAFC75
:1003FC00202000F0F7FC4FF4807000F0F3FC6CE26E
:10040C00824B1B68012B40F05F82814B1B68032BD6
:10041C0002DD7F4B00221A607D4B1B685A1C7C4905
:10042C000A60184600F022FC192000F037FE4BE25F
:10043C00754B1B68012B04D1FFF7F6FE012000F071
:10044C0055FEFFF7BBFE0346012B07D16D4B022275
:10045C001A70704B1B68704A13603EE26F4B1B683E
:10046C00012B40F0A1806E4B1B68002B3DD16D4BD6
:10047C001B68002B10D1402000F0A2FC102000F0D3
:10048C00B1FC202000F0AEFC664B02221A60614BDE
:10049C001B68634A136028E0624B1B68012B10D168
:1004AC00402000F09FFC202000F08AFC102000F07F
:1004BC0099FC5C4B00221A605B4B1B68584A13601A
:1004CC0013E0584B1B68022B0FD1402000F08AFC24
:1004DC00202000F087FC102000F072FC514B012210
:1004EC001A60524B1B684E4A1360514B1B68002B11
:1004FC0043D1504B1B68002B12D14FF4007000F00D
:10050C005FFC802000F06EFC4FF4807000F06AFC01
:10051C00484B02221A603F4B1B68454A13602CE083
:10052C00444B1B68012B12D14FF4007000F05AFCA5
:10053C004FF4807000F044FC802000F053FC3D4BE5
:10054C0000221A60384B1B68394A136015E0394B8E
:10055C001B68022B11D14FF4007000F043FC4FF4D8
:10056C00807000F03FFC802000F02AFC314B01220F
:10057C001A602E4B1B682E4A1360294B1B68013BDB
:10058C00274A13602A4B1B68013B294A1360244BF2
:10059C001B68294A1360264B1B68284A136000F01D
:1005AC00B7FB642000F08EFD184B1B68012B40F04C
:1005BC008D81174B1B68032B02DD154B00221A6033
:1005CC00134B1B685A1C12490A60184600F04EFB6C
:1005DC00192000F063FD79E10B4B1B68012B04D152
:1005EC00FFF722FE012000F081FDFFF7E7FD034637
:1005FC00012B27D1034B03221A700B4B1B68104A9B
:10060C0013606AE14C00002074000020640000209C
:10061C005C00002008000020BC0000206C000020C2
:10062C005400002050000020100000200C0000207E
:10063C005800002004000020C4000020C00000204E
:10064C00B8000020FFF7CCFD0346012B04D1A44BCE
:10065C001B680133A24A1360FFF7D4FD0346012B3C
:10066C0003D19F4B1B689F4A1360102000F0BAFB0C
:10067C00802000F0B7FB202000F0B4FB4FF480701A
:10068C0000F0B0FB984B02221A60954B1B68974AFE
:10069C00136000F03DFB964B1B68012B13D1954B5F
:1006AC001B68032B02DD934B00221A60914B1B68D5
:1006BC005A1C90490A60184600F0D8FA192000F02C
:1006CC00EDFC00F0A1FBFFF79DFD0346012B40F074
:1006DC00FF80834B1B68834A1360F9E0864B1B68D1
:1006EC00012B04D1FFF7A0FD012000F0FFFCFFF768
:1006FC0065FD0346012B07D1804B04221A70804BF9
:10070C001B68804A1360E8E0FFF76AFD0346012B83
:10071C0004D17D4B1B6801337B4A1360FFF772FDDC
:10072C000346012B03D1784B1B68784A1360402099
:10073C0000F058FB4FF4007000F054FB102000F058
:10074C0051FB802000F04EFB674B03221A606E4B6E
:10075C001B68664A136000F0DBFA654B1B68012BC3
:10076C0040F0B880634B1B68032B02DD614B002209
:10077C001A60604B1B685A1C5E490A60184600F0F0
:10078C0075FA192000F08AFC00F05CFBA2E05A4BD1
:10079C001B68012B04D1FFF747FD012000F0A6FCDC
:1007AC00FFF70CFD0346012B49D1554B1A68574BEB
:1007BC001B681A444B4B1B689A4217D14F4B0122B2
:1007CC001A70402000F0FCFA4FF4007000F0F8FAB8
:1007DC00102000F0F5FA802000F0F2FA202000F052
:1007EC00EFFA4FF4807000F0EBFA76E0434B002206
:1007FC001A703C4B05221A60414B03221A60434B82
:10080C0002221A60402000F0DBFA4FF4007000F076
:10081C00D7FA102000F0D4FA802000F0D1FA202072
:10082C0000F0CEFA4FF4807000F0CAFA2E4B58222A
:10083C001A602E4B58221A6000F06AFA4DE0FFF74E
:10084C00CFFC0346012B04D12E4B1B6801332D4AE0
:10085C001360FFF7D7FC0346012B03D1294B1B6810
:10086C00274A1360402000F0BDFA4FF4007000F0EE
:10087C00B9FA202000F0B6FA4FF4807000F0B2FA0A
:10088C00194B04221A601F4B1B68184A136000F0A6
:10089C003FFA174B1B68012B1ED1164B1B68032B01
:1008AC0002DD144B00221A60124B1B685A1C1149B2
:1008BC000A60184600F0DAF9192000F0EFFB00F09E
:1008CC00B3FA09E000BF08E000BF06E000BF04E097
:1008DC0000BF02E000BF00E000BF00BF80BD00BF52
:1008EC00BC00002008000020C4000020C000002034
:1008FC00640000205C000020740000204C000020EC
:10090C000C000020B4000020B800002010000020D3
:10091C0080B582B000AF78607B68002B23D10022B9
:10092C000121C24800F0F9FF00220221BF4800F06B
:10093C00F4FF00220421BD4800F0EFFF0022082143
:10094C00BA4800F0EAFF00221021B84800F0E5FF99
:10095C0000222021B54800F0E0FF01224021B348DD
:10096C0000F0DBFF5DE17B68012B23D1012201212B
:10097C00AE4800F0D2FF00220221AC4800F0CDFFBF
:10098C0000220421A94800F0C8FF01220821A74831
:10099C0000F0C3FF01221021A44800F0BEFF012289
:1009AC002021A24800F0B9FF012240219F4800F00D
:1009BC00B4FF36E17B68022B23D1002201219B4836
:1009CC0000F0ABFF00220221984800F0A6FF0122A4
:1009DC000421964800F0A1FF00220821934800F062
:1009EC009CFF00221021914800F097FF012220214A
:1009FC008E4800F092FF002240218C4800F08DFFC1
:100A0C000FE17B68032B23D100220121874800F0E2
:100A1C0084FF00220221854800F07FFF0022042180
:100A2C00824800F07AFF00220821804800F075FF10
:100A3C00012210217D4800F070FF012220217B480B
:100A4C0000F06BFF00224021784800F066FFE8E0E0
:100A5C007B68042B23D101220121744800F05DFF37
:100A6C0000220221714800F058FF002204216F4837
:100A7C0000F053FF012208216C4800F04EFF0122C8
:100A8C0010216A4800F049FF00222021674800F03D
:100A9C0044FF00224021654800F03FFFC1E07B6825
:100AAC00052B23D100220121604800F036FF0122E2
:100ABC0002215E4800F031FF002204215B4800F067
:100ACC002CFF00220821594800F027FF0122102199
:100ADC00564800F022FF00222021544800F01DFF50
:100AEC0000224021514800F018FF9AE07B68062B49
:100AFC0023D1002201214D4800F00FFF01220221D9
:100B0C004A4800F00AFF00220421484800F005FF83
:100B1C0000220821454800F000FF00221021434824
:100B2C0000F0FBFE00222021404800F0F6FE0022DF
:100B3C0040213E4800F0F1FE73E07B68072B23D187
:100B4C0000220121394800F0E8FE0022022137483A
:100B5C0000F0E3FE00220421344800F0DEFE012206
:100B6C000821324800F0D9FE012210212F4800F054
:100B7C00D4FE012220212D4800F0CFFE012240217D
:100B8C002A4800F0CAFE4CE07B68082B23D10022D7
:100B9C000121264800F0C1FE00220221234800F06A
:100BAC00BCFE00220421214800F0B7FE00220821DF
:100BBC001E4800F0B2FE002210211C4800F0ADFED1
:100BCC0000222021194800F0A8FE002240211748DD
:100BDC0000F0A3FE25E07B68092B22D10022012125
:100BEC00124800F09AFE00220221104800F095FEF7
:100BFC00002204210D4800F090FE002208210B4831
:100C0C0000F08BFE01221021084800F086FE002225
:100C1C002021064800F081FE00224021034800F00C
:100C2C007CFE00BF0837BD4680BD00BF000C0140F4
:100C3C0080B500AF012280210B4800F06EFE01222E
:100C4C004FF48071084800F068FE01224FF40071E7
:100C5C00054800F062FE01224FF48061024800F06A
:100C6C005CFE00BF80BD00BF000C014080B582B0AF
:100C7C0000AF78607B68032B41D801A252F823F0B7
:100C8C009D0C0008B70C0008D30C0008EF0C0008F2
:100C9C00FFF7CEFF002280211B4800F03EFE1B4BCD
:100CAC001B681846FFF734FE2AE0FFF7C1FF00224D
:100CBC004FF48071144800F030FE144B5B681846FA
:100CCC00FFF726FE1CE0FFF7B3FF00224FF4007184
:100CDC000D4800F022FE0D4B9B681846FFF718FEDE
:100CEC000EE0FFF7A5FF00224FF48061064800F0EC
:100CFC0014FE064BDB681846FFF70AFE00E000BF47
:100D0C0000BF0837BD4680BD000C01401400002018
:100D1C0080B400AF264B1B68092B07DC254B002247
:100D2C001A60234B1B68234A536018E0204B1B6846
:100D3C00214A82FB03129210DB17D31A1D4A13604F
:100D4C001B4B19681C4B83FB01239A10CB17D21A2F
:100D5C0013469B0013445B00CA1A164B5A60174B80
:100D6C001B68092B07DC134B00229A60134B1B6882
:100D7C00104AD36018E0114B1B680F4A82FB031218
:100D8C009210DB17D31A0B4A93600C4B19680A4B61
:100D9C0083FB01239A10CB17D21A13469B001344E2
:100DAC005B00CA1A034BDA6000BFBD4680BC7047BB
:100DBC00C40000201400002067666666C000002096
:100DCC0080B582B000AF78607B689BB20022194678
:100DDC00034800F0A2FD00BF0837BD4680BD00BF30
:100DEC000008014080B582B000AF78607B689BB290
:100DFC0001221946034800F090FD00BF0837BD469C
:100E0C0080BD00BF0008014080B500AF40210548FF
:100E1C0000F09BFD4FF40071024800F096FD00BFFE
:100E2C0080BD00BF0008014080B500AF1021044810
:100E3C0000F08BFD8021024800F087FD00BF80BDD3
:100E4C000008014080B500AF2021054800F07DFD71
:100E5C004FF48071024800F078FD00BF80BD00BFE8
:100E6C000008014080B500AF00F056FA00F018F809
:100E7C0000F09EF800F050F8084801F0ABF9FFF7CD
:100E8C005FF9192000F00AF9642000F01BF9012029
:100E9C0000F02CF9FFF77AFAFCE700BFC80000203D
:100EAC0080B590B000AF07F1180328220021184636
:100EBC0001F04CFD3B1D00221A605A609A60DA600A
:100ECC001A610223BB610123BB621023FB62002366
:100EDC007B6307F11803184600F050FD0346002B06
:100EEC0001D000F0D5F80F237B600023BB600023FA
:100EFC00FB6000233B6100237B613B1D00211846F6
:100F0C0000F0BCFF0346002B01D000F0C1F800BF7D
:100F1C004037BD4680BD000080B586B000AF07F1FC
:100F2C00080300221A605A609A60DA603B4600227D
:100F3C001A605A601D4B4FF080421A601B4B41F6F1
:100F4C003F725A60194B00229A60184B0922DA60E2
:100F5C00164B00221A61154B00229A61134801F0BE
:100F6C00E9F80346002B01D000F092F84FF48053BF
:100F7C00BB6007F1080319460C4801F07FFA0346E1
:100F8C00002B01D000F084F800233B6000237B6031
:100F9C003B461946054801F04BFC0346002B01D09B
:100FAC0000F076F800BF1837BD4680BDC8000020A1
:100FBC0080B586B000AF07F1080300221A605A60B2
:100FCC009A60DA60284B9B69274A43F004039361CB
:100FDC00254B9B6903F004037B607B68224B9B6968
:100FEC00214A43F0080393611F4B9B6903F00803EC
:100FFC003B603B6800224FF47C711C4800F08DFC78
:10100C00002240F2FF711A4800F087FC0E23BB60EF
:10101C000023FB6001233B6107F1080319461348C9
:10102C0000F0EAFA4FF47C73BB600123FB600023F1
:10103C003B6102237B6107F1080319460B4800F062
:10104C00DBFA40F2FF73BB600123FB6000233B61C2
:10105C0002237B6107F108031946054800F0CCFA1E
:10106C0000BF1837BD4680BD00100240000801408B
:10107C00000C014080B582B000AF786000F04AF8F7
:10108C0000F062F800F07AF800BF0837BD4680BD6A
:10109C0080B400AF72B600BFFEE7000080B483B02E
:1010AC0000AF7860054A7B681360054B00221A601C
:1010BC0000BF0C37BD4680BC704700BF60000020ED
:1010CC006400002080B483B000AF7860054A7B6870
:1010DC001360054B00221A6000BF0C37BD4680BC64
:1010EC00704700BF680000206C00002080B483B003
:1010FC0000AF7860054A7B681360054B00221A60CC
:10110C0000BF0C37BD4680BC704700BF700000208C
:10111C007400002080B400AF094B1B68002B0BDD62
:10112C00074B1B68013B064A1360054B1B68002BE1
:10113C0002DC044B01221A6000BFBD4680BC704724
:10114C00600000206400002080B400AF094B1B68D5
:10115C00002B0BDD074B1B68013B064A1360054B4C
:10116C001B68002B02DC044B01221A6000BFBD4639
:10117C0080BC7047680000206C00002080B400AF79
:10118C00094B1B68002B0BDD074B1B68013B064A08
:10119C001360054B1B68002B02DC044B01221A6008
:1011AC0000BFBD4680BC704770000020740000205A
:1011BC0080B485B000AF154B9B69144A43F0010312
:1011CC009361124B9B6903F00103BB60BB680F4B2F
:1011DC00DB690E4A43F08053D3610C4BDB6903F09F
:1011EC0080537B607B680A4B5B68FB60FB6823F079
:1011FC00E063FB60FB6843F08063FB60044AFB68C0
:10120C00536000BF1437BD4680BC704700100240CD
:10121C000000014080B584B000AF78607B681B682B
:10122C00B3F1804F13D10C4BDB690B4A43F0010334
:10123C00D361094BDB6903F00103FB60FB680022FF
:10124C0000211C2000F0A1F91C2000F0BAF900BF0D
:10125C001037BD4680BD00BF0010024080B400AF07
:10126C00FEE780B400AFFEE780B400AFFEE780B4C9
:10127C0000AFFEE780B400AFFEE780B400AF00BF64
:10128C00BD4680BC704780B400AF00BFBD4680BC7B
:10129C00704780B400AF00BFBD4680BC704780B5BE
:1012AC0000AF00F07FF800BF80BD000080B500AF3C
:1012BC00024800F0DBFF00BF80BD00BFC80000206B
:1012CC0080B400AF00BFBD4680BC7047FFF7F8FF8D
:1012DC000B480C490C4A002302E0D458C450043388
:1012EC00C4188C42F9D3094A094C002301E013605D
:1012FC000432A242FBD301F005FBFFF7B3FD7047AC
:10130C000000002030000020AC2900083000002034
:10131C0014010020FEE7000080B500AF084B1B68ED
:10132C00074A43F010031360032000F023F90F2049
:10133C0000F008F8FFF73CFF0023184680BD00BF03
:10134C000020024080B582B000AF7860124B1A6862
:10135C00124B1B7819464FF47A73B3FBF1F3B2FBC3
:10136C00F3F3184600F03BF90346002B01D00123A0
:10137C000EE07B680F2B0AD8002279684FF0FF3003
:10138C0000F003F9064A7B681360002300E0012398
:10139C0018460837BD4680BD240000202C000020D4
:1013AC002800002080B400AF054B1B781A46054B73
:1013BC001B681344034A136000BFBD4680BC7047D2
:1013CC002C0000201001002080B400AF024B1B68E1
:1013DC001846BD4680BC70471001002080B485B013
:1013EC0000AF78607B6803F00703FB600C4BDB6895
:1013FC00BB60BA684FF6FF031340BB60FB681A0270
:10140C00BB68134343F0BF6343F40033BB60044A2F
:10141C00BB68D36000BF1437BD4680BC704700BFAB
:10142C0000ED00E080B400AF044BDB681B0A03F056
:10143C0007031846BD4680BC704700BF00ED00E0B6
:10144C0080B483B000AF0346FB7197F90730002BD3
:10145C000BDBFB7903F01F02064997F907305B0998
:10146C00012000FA02F241F8232000BF0C37BD46E0
:10147C0080BC704700E100E080B483B000AF03464D
:10148C003960FB7197F90730002B0ADB3B68DAB245
:10149C000C4997F907301201D2B20B4483F80023A0
:1014AC000AE03B68DAB20849FB7903F00F03043B0E
:1014BC001201D2B20B441A7600BF0C37BD4680BC69
:1014CC00704700BF00E100E000ED00E080B489B09F
:1014DC0000AFF860B9607A60FB6803F00703FB614A
:1014EC00FB69C3F10703042B28BF0423BB61FB6911
:1014FC000433062B02D9FB69033B00E000237B611C
:10150C004FF0FF32BB6902FA03F3DA43BB681A40AF
:10151C007B699A404FF0FF317B6901FA03F3D943A1
:10152C007B680B40134318462437BD4680BC70477C
:10153C0080B582B000AF78607B68013BB3F1807FEF
:10154C0001D301230FE00A4A7B68013B53600F2152
:10155C004FF0FF30FFF790FF054B00229A60044BD1
:10156C0007221A60002318460837BD4680BD00BF0D
:10157C0010E000E080B582B000AF78607868FFF7CB
:10158C002DFF00BF0837BD4680BD80B586B000AFCB
:10159C000346B9607A60FB7300237B61FFF742FF5F
:1015AC0078617A68B9687869FFF790FF024697F915
:1015BC000F3011461846FFF75FFF00BF1837BD46C6
:1015CC0080BD80B582B000AF0346FB7197F9073040
:1015DC001846FFF735FF00BF0837BD4680BD80B504
:1015EC0082B000AF78607868FFF7A2FF0346184618
:1015FC000837BD4680BD000080B48BB000AF78606A
:10160C00396000237B6200233B6248E101227B6A44
:10161C0002FA03F3FB613B681B68FA691340BB6178
:10162C00BA69FB699A4240F037813B685B68A34A10
:10163C0093425ED0A14A934275D8A14A934258D0A6
:10164C009F4A93426FD89F4A934252D09D4A9342ED
:10165C0069D89D4A93424CD09B4A934263D89B4A8B
:10166C00934246D0994A93425DD8122B2AD8122B1A
:10167C0059D801A252F823F0FF160008D916000819
:10168C00EB1600082D170008331700083317000855
:10169C0033170008331700083317000833170008F6
:1016AC0033170008331700083317000833170008E6
:1016BC00331700083317000833170008E116000829
:1016CC00F5160008824A934213D02CE03B68DB6885
:1016DC003B6229E03B68DB6804333B6224E03B68F7
:1016EC00DB6808333B621FE03B68DB680C333B6212
:1016FC001AE03B689B68002B02D104233B6213E089
:10170C003B689B68012B05D108233B627B68FA6917
:10171C001A6109E008233B627B68FA695A6103E0AD
:10172C0000233B6200E000BFBB69FF2B01D87B6844
:10173C0001E07B6804337B61BB69FF2B02D87B6AB9
:10174C009B0002E07B6A083B9B003B617B691A684B
:10175C000F213B6901FA03F3DB431A40396A3B69F9
:10176C0001FA03F31A437B691A603B685B6803F068
:10177C008053002B00F09080564B9B69554A43F0E8
:10178C0001039361534B9B6903F00103BB60BB687E
:10179C00514A7B6A9B08023352F82330FB607B6A08
:1017AC0003F003039B000F2202FA03F3DB43FA68F6
:1017BC001340FB607B68494A93420DD07B68484AD2
:1017CC00934207D07B68474A934201D1022304E03D
:1017DC00032302E0012300E000237A6A02F00302F3
:1017EC0092009340FA681343FB603B497B6A9B0869
:1017FC000233FA6841F823203B685B6803F48013DA
:10180C00002B06D0384B9A683749BB6913438B6061
:10181C0006E0354B9A68BB69DB43334913408B6058
:10182C003B685B6803F40013002B06D02E4BDA6880
:10183C002D49BB691343CB6006E02B4BDA68BB69BF
:10184C00DB4329491340CB603B685B6803F40033EE
:10185C00002B06D0244B5A682349BB6913434B60B9
:10186C0006E0214B5A68BB69DB431F4913404B60B0
:10187C003B685B6803F48033002B06D01A4B1A6864
:10188C001949BB6913430B6006E0174B1A68BB6917
:10189C00DB43154913400B607B6A01337B623B6869
:1018AC001A687B6A22FA03F3002B7FF4AFAE00BFF9
:1018BC0000BF2C37BD4680BC704700BF0000321003
:1018CC000000311000002210000021100000121046
:1018DC0000001110001002400000014000080140FF
:1018EC00000C0140001001400004014080B485B0A0
:1018FC0000AF78600B467B807B689A687B881340CE
:10190C00002B02D00123FB7301E00023FB73FB7B54
:10191C0018461437BD4680BC704780B483B000AF06
:10192C0078600B467B8013467B707B78002B03D052
:10193C007A887B681A6103E07B881A047B681A61D9
:10194C0000BF0C37BD4680BC704780B485B000AF7B
:10195C0078600B467B807B68DB68FB607A88FB6871
:10196C0013401A04FB68D9437B880B401A437B68ED
:10197C001A6100BF1437BD4680BC704780B586B075
:10198C0000AF78607B68002B01D101236CE27B688F
:10199C001B6803F00103002B00F08780924B5B68FF
:1019AC0003F00C03042B0CD08F4B5B6803F00C037F
:1019BC00082B12D18C4B5B6803F48033B3F5803F5A
:1019CC000BD1894B1B6803F40033002B6CD07B6864
:1019DC005B68002B68D1012346E27B685B68B3F53A
:1019EC00803F06D1804B1B687F4A43F480331360E1
:1019FC002EE07B685B68002B0CD17B4B1B687A4A12
:101A0C0023F480331360784B1B68774A23F48023CC
:101A1C0013601DE07B685B68B3F5A02F0CD1724B93
:101A2C001B68714A43F4802313606F4B1B686E4A2A
:101A3C0043F4803313600BE06B4B1B686A4A23F44E
:101A4C0080331360684B1B68674A23F48023136050
:101A5C007B685B68002B13D0FFF7B6FC386108E09D
:101A6C00FFF7B2FC02463B69D31A642B01D903235E
:101A7C00FAE15D4B1B6803F40033002BF0D014E04B
:101A8C00FFF7A2FC386108E0FFF79EFC02463B69B9
:101A9C00D31A642B01D90323E6E1534B1B6803F4DF
:101AAC000033002BF0D100E000BF7B681B6803F013
:101ABC000203002B63D04C4B5B6803F00C03002B30
:101ACC000BD0494B5B6803F00C03082B1CD1464B25
:101ADC005B6803F48033002B16D1434B1B6803F077
:101AEC000203002B05D07B681B69012B01D001235D
:101AFC00BAE13D4B1B6823F0F8027B685B69DB00A5
:101B0C00394913430B603AE07B681B69002B20D0EA
:101B1C00364B01221A60FFF757FC386108E0FFF7DB
:101B2C0053FC02463B69D31A022B01D903239BE1D8
:101B3C002D4B1B6803F00203002BF0D02A4B1B68C3
:101B4C0023F0F8027B685B69DB00274913430B60C9
:101B5C0015E0264B00221A60FFF736FC386108E0CE
:101B6C00FFF732FC02463B69D31A022B01D903233F
:101B7C007AE11D4B1B6803F00203002BF0D17B684C
:101B8C001B6803F00803002B3AD07B689B69002B81
:101B9C0019D0174B01221A60FFF716FC386108E0C8
:101BAC00FFF712FC02463B69D31A022B01D903231F
:101BBC005AE10D4B5B6A03F00203002BF0D00120BD
:101BCC0000F09AFA1CE00A4B00221A60FFF7FCFBAB
:101BDC0038610FE0FFF7F8FB02463B69D31A022B82
:101BEC0008D9032340E100BF00100240000042422C
:101BFC00800442429E4B5B6A03F00203002BE9D146
:101C0C007B681B6803F00403002B00F0A680002304
:101C1C00FB75974BDB6903F08053002B0DD1944B74
:101C2C00DB69934A43F08053D361914BDB6903F03A
:101C3C008053BB60BB680123FB758E4B1B6803F4A0
:101C4C008073002B18D18B4B1B688A4A43F480732A
:101C5C001360FFF7B9FB386108E0FFF7B5FB0246EC
:101C6C003B69D31A642B01D90323FDE0814B1B681C
:101C7C0003F48073002BF0D07B68DB68012B06D15A
:101C8C007B4B1B6A7A4A43F0010313622DE07B689D
:101C9C00DB68002B0CD1764B1B6A754A23F00103D1
:101CAC001362734B1B6A724A23F0040313621CE029
:101CBC007B68DB68052B0CD16D4B1B6A6C4A43F0BF
:101CCC00040313626A4B1B6A694A43F001031362F3
:101CDC000BE0674B1B6A664A23F001031362644BEB
:101CEC001B6A634A23F0040313627B68DB68002BD6
:101CFC0015D0FFF769FB38610AE0FFF765FB024678
:101D0C003B69D31A41F28832934201D90323ABE0E9
:101D1C00574B1B6A03F00203002BEED014E0FFF7C5
:101D2C0053FB38610AE0FFF74FFB02463B69D31ABD
:101D3C0041F28832934201D9032395E04C4B1B6A44
:101D4C0003F00203002BEED1FB7D012B05D1484B98
:101D5C00DB69474A23F08053D3617B68DB69002B36
:101D6C0000F08180424B5B6803F00C03082B61D0C0
:101D7C007B68DB69022B46D13F4B00221A60FFF7D0
:101D8C0023FB386108E0FFF71FFB02463B69D31ABF
:101D9C00022B01D9032367E0354B1B6803F000735A
:101DAC00002BF0D17B681B6AB3F5803F08D1304B18
:101DBC005B6823F400327B689B682D4913434B60AE
:101DCC002B4B5B6823F474127B68196A7B685B6A23
:101DDC000B43274913434B60274B01221A60FFF733
:101DEC00F3FA386108E0FFF7EFFA02463B69D31AC1
:101DFC00022B01D9032337E01D4B1B6803F0007342
:101E0C00002BF0D02FE01C4B00221A60FFF7DCFAFD
:101E1C00386108E0FFF7D8FA02463B69D31A022B67
:101E2C0001D9032320E0124B1B6803F00073002B35
:101E3C00F0D118E07B68DB69012B01D1012313E0A1
:101E4C000B4B5B68FB60FB6803F480327B681B6A9E
:101E5C009A4206D1FB6803F470127B685B6A9A4263
:101E6C0001D0012300E0002318461837BD4680BD81
:101E7C0000100240007000406000424280B584B007
:101E8C0000AF786039607B68002B01D10123D0E072
:101E9C006A4B1B6803F007033A689A4210D9674BE8
:101EAC001B6823F0070265493B6813430B60634BC7
:101EBC001B6803F007033A689A4201D00123B8E08B
:101ECC007B681B6803F00203002B20D07B681B6827
:101EDC0003F00403002B05D0594B5B68584A43F4BC
:101EEC00E06353607B681B6803F00803002B05D08C
:101EFC00534B5B68524A43F460535360504B5B68DE
:101F0C0023F0F0027B689B684D4913434B607B6860
:101F1C001B6803F00103002B40D07B685B68012B2E
:101F2C0007D1474B1B6803F40033002B15D1012359
:101F3C007FE07B685B68022B07D1414B1B6803F089
:101F4C000073002B09D1012373E03D4B1B6803F098
:101F5C000203002B01D101236BE0394B5B6823F0AA
:101F6C0003027B685B68364913434B60FFF72CFA1E
:101F7C00F8600AE0FFF728FA0246FB68D31A41F230
:101F8C008832934201D9032353E02D4B5B6803F055
:101F9C000C027B685B689B009A42EBD1274B1B6859
:101FAC0003F007033A689A4210D2244B1B6823F0C3
:101FBC00070222493B6813430B60204B1B6803F05C
:101FCC0007033A689A4201D0012332E07B681B6810
:101FDC0003F00403002B08D0194B5B6823F4E06278
:101FEC007B68DB68164913434B607B681B6803F006
:101FFC000803002B09D0124B5B6823F460527B68FA
:10200C001B69DB000E4913434B6000F021F80246BC
:10201C000B4B5B681B0903F00F030A49CB5C22FADC
:10202C0003F3094A1360094B1B681846FFF78AF93A
:10203C00002318461037BD4680BD00BF002002406B
:10204C0000100240802900082400002028000020F5
:10205C0080B487B000AF0023FB600023BB6000237B
:10206C007B6100237B6000233B611E4B5B68FB6044
:10207C00FB6803F00C03042B02D0082B03D027E0E1
:10208C00194B3B6127E0FB689B0C03F00F03174ACD
:10209C00D35C7B60FB6803F48033002B10D0114BB6
:1020AC005B685B0C03F00103114AD35CBB607B687B
:1020BC000D4A02FB03F2BB68B2FBF3F37B6104E055
:1020CC007B680C4A02FB03F37B617B693B6102E09A
:1020DC00054B3B6100BF3B6918461C37BD4680BCB5
:1020EC00704700BF0010024000127A0090290008CF
:1020FC00A029000800093D0080B485B000AF7860CD
:10210C000A4B1B680A4AA2FB03235B0A7A6802FB90
:10211C0003F3FB6000BFFB685A1EFA60002BF9D179
:10212C0000BF00BF1437BD4680BC704724000020A0
:10213C00D34D621080B582B000AF78607B68002B05
:10214C0001D1012341E07B6893F83D30DBB2002BD9
:10215C0006D17B68002283F83C207868FFF75AF898
:10216C007B68022283F83D207B681A687B68043305
:10217C001946104600F06EFA7B68012283F846205F
:10218C007B68012283F83E207B68012283F83F2084
:10219C007B68012283F840207B68012283F8412070
:1021AC007B68012283F842207B68012283F843205C
:1021BC007B68012283F844207B68012283F8452048
:1021CC007B68012283F83D20002318460837BD4662
:1021DC0080BD000080B485B000AF78607B6893F858
:1021EC003D30DBB2012B01D0012335E07B680222AC
:1021FC0083F83D207B681B68DA687B681B6842F0BB
:10220C000102DA607B681B68164A934209D07B682E
:10221C001B68B3F1804F04D07B681B68124A934251
:10222C0011D17B681B689B6803F00703FB60FB689C
:10223C00062B10D07B681B681A687B681B6842F001
:10224C0001021A6007E07B681B681A687B681B68D0
:10225C0042F001021A60002318461437BD4680BCB8
:10226C00704700BF002C01400004004080B582B0D4
:10227C0000AF78607B681B681B6903F00203022BBC
:10228C0022D17B681B68DB6803F00203022B1BD195
:10229C007B681B686FF002021A617B6801221A7757
:1022AC007B681B689B6903F00303002B03D07868E1
:1022BC0000F0B4F905E0786800F0A7F9786800F050
:1022CC00B6F97B6800221A777B681B681B6903F0E0
:1022DC000403042B22D17B681B68DB6803F0040326
:1022EC00042B1BD17B681B686FF004021A617B689E
:1022FC0002221A777B681B689B6903F44073002BDE
:10230C0003D0786800F08AF905E0786800F07DF970
:10231C00786800F08CF97B6800221A777B681B6860
:10232C001B6903F00803082B22D17B681B68DB6850
:10233C0003F00803082B1BD17B681B686FF00802A5
:10234C001A617B6804221A777B681B68DB6903F0CF
:10235C000303002B03D0786800F060F905E078687F
:10236C0000F053F9786800F062F97B6800221A7764
:10237C007B681B681B6903F01003102B22D17B6850
:10238C001B68DB6803F01003102B1BD17B681B68E8
:10239C006FF010021A617B6808221A777B681B6841
:1023AC00DB6903F44073002B03D0786800F036F936
:1023BC0005E0786800F029F9786800F038F97B6856
:1023CC0000221A777B681B681B6903F00103012B41
:1023DC000ED17B681B68DB6803F00103012B07D16E
:1023EC007B681B686FF001021A617868FEF742FE89
:1023FC007B681B681B6903F08003802B0ED17B6804
:10240C001B68DB6803F08003802B07D17B681B689B
:10241C006FF080021A61786800F06BFA7B681B68B9
:10242C001B6903F04003402B0ED17B681B68DB68F3
:10243C0003F04003402B07D17B681B686FF0400210
:10244C001A61786800F0FCF87B681B681B6903F064
:10245C002003202B0ED17B681B68DB6803F0200364
:10246C00202B07D17B681B686FF020021A617868FB
:10247C0000F036FA00BF0837BD4680BD80B584B089
:10248C0000AF786039600023FB737B6893F83C30B5
:10249C00012B01D10223B4E07B68012283F83C209C
:1024AC007B68022283F83D207B681B689B68BB60BD
:1024BC00BB6823F07703BB60BB6823F47F43BB602E
:1024CC007B681B68BA689A603B681B68B3F5005F51
:1024DC003ED0B3F5005F00F28780B3F5805F00F06B
:1024EC008680B3F5805F7FD8702B1AD0702B7BD889
:1024FC00602B50D0602B77D8502B3CD0502B73D8FE
:10250C00402B58D0402B6FD8302B64D0302B6BD84D
:10251C00202B60D0202B67D8002B5CD0102B5AD0EE
:10252C0062E07B6818683B6899683B685A683B684E
:10253C00DB6800F05EF97B681B689B68BB60BB685E
:10254C0043F07703BB607B681B68BA689A604FE006
:10255C007B6818683B6899683B685A683B68DB681D
:10256C0000F047F97B681B689A687B681B6842F42B
:10257C0080429A603CE07B6818683B6859683B680D
:10258C00DB681A4600F0BEF87B681B6850211846C1
:10259C0000F015F92CE07B6818683B6859683B68BB
:1025AC00DB681A4600F0DCF87B681B686021184673
:1025BC0000F005F91CE07B6818683B6859683B68BB
:1025CC00DB681A4600F09EF87B681B6840211846B1
:1025DC0000F0F5F80CE07B681A683B681B6819463C
:1025EC00104600F0ECF803E00123FB7300E000BFA1
:1025FC007B68012283F83D207B68002283F83C2015
:10260C00FB7B18461037BD4680BD80B483B000AF4D
:10261C00786000BF0C37BD4680BC704780B483B077
:10262C0000AF786000BF0C37BD4680BC704780B4EB
:10263C0083B000AF786000BF0C37BD4680BC7047DC
:10264C0080B483B000AF786000BF0C37BD4680BC4F
:10265C007047000080B485B000AF786039607B684B
:10266C001B68FB607B68254A934207D07B68B3F1FB
:10267C00804F03D07B68224A934208D1FB6823F039
:10268C007003FB603B685B68FA681343FB607B6814
:10269C001A4A934207D07B68B3F1804F03D07B6812
:1026AC00174A934208D1FB6823F44073FB603B68E4
:1026BC00DB68FA681343FB60FB6823F080023B681D
:1026CC005B691343FB607B68FA681A603B689A6825
:1026DC007B68DA623B681A687B689A627B68074A97
:1026EC00934203D13B681A697B681A637B680122A9
:1026FC005A6100BF1437BD4680BC7047002C0140A6
:10270C000004004080B487B000AFF860B9607A6014
:10271C00FB681B6A7B61FB681B6A23F00102FB6888
:10272C001A62FB689B693B613B6923F0F0033B61D8
:10273C007B681B013A6913433B617B6923F00A03F5
:10274C007B617A69BB6813437B61FB683A699A6168
:10275C00FB687A691A6200BF1C37BD4680BC7047A3
:10276C0080B487B000AFF860B9607A60FB681B6A10
:10277C007B61FB681B6A23F01002FB681A62FB6822
:10278C009B693B613B6923F470433B617B681B0392
:10279C003A6913433B617B6923F0A0037B61BB68FF
:1027AC001B017A6913437B61FB683A699A61FB6888
:1027BC007A691A6200BF1C37BD4680BC704780B472
:1027CC0085B000AF786039607B689B68FB60FB6804
:1027DC0023F07003FB603A68FB68134343F0070374
:1027EC00FB607B68FA689A6000BF1437BD4680BCFA
:1027FC00704780B487B000AFF860B9607A603B6016
:10280C00FB689B687B617B6923F47F437B613B683E
:10281C001A027B681A43BB6813437A6913437B61C2
:10282C00FB687A699A6000BF1C37BD4680BC704754
:10283C0080B485B000AF786039607B6893F83C3029
:10284C00012B01D1022341E07B68012283F83C205B
:10285C007B68022283F83D207B681B685B68FB6009
:10286C007B681B689B68BB60FB6823F07003FB6094
:10287C003B681B68FA681343FB607B681B68FA684B
:10288C005A607B681B68144A934209D07B681B68AA
:10289C00B3F1804F04D07B681B68104A93420CD173
:1028AC00BB6823F08003BB603B685B68BA6813436A
:1028BC00BB607B681B68BA689A607B68012283F8EE
:1028CC003D207B68002283F83C20002318461437F7
:1028DC00BD4680BC704700BF002C01400004004086
:1028EC0080B483B000AF786000BF0C37BD4680BCAD
:1028FC00704780B483B000AF786000BF0C37BD4622
:10290C0080BC704770B500260C4D0D4C641BA41098
:10291C00A64209D100F022F800260A4D0A4C641B8D
:10292C00A410A64205D170BD55F8043B984701365A
:10293C00EEE755F8043B98470136F2E7A429000866
:10294C00A4290008A4290008A82900080346024469
:10295C00934200D1704703F8011BF9E7F8B500BFAB
:10296C00F8BC08BC9E467047F8B500BFF8BC08BC64
:04297C009E467047BC
:10298000000000000000000001020304060708091F
:1029900002030405060708090A0B0C0D0E0F1010A0
:0429A0000102000030
:0429A40031010008F5
:0429A8000D01000815
:1029AC00C800000002000000050000000300000049
:1029BC0002000000080000000800000008000000F1
:1029CC00080000000024F4001000000001000000CA
:04000005080012D904
:00000001FF
