:020000040800F2
:100000000028002099130008291300082F13000866
:10001000351300083B1300084113000800000000DE
:10002000000000000000000000000000471300086E
:1000300053130008000000005F1300086B13000852
:10004000E1130008E1130008E1130008E1130008C0
:10005000E1130008E1130008E1130008E1130008B0
:10006000E1130008E1130008E1130008E1130008A0
:10007000E1130008E1130008E1130008E113000890
:10008000E1130008E1130008E1130008E113000880
:10009000E1130008E1130008E1130008E113000870
:1000A000E1130008E1130008E1130008E113000860
:1000B00079130008E113000800000000E1130008B4
:1000C000E11300080000000000000000E113000838
:1000D00000000000E1130008E11300080000000028
:1000E000E1130008E1130008E1130008000000001C
:1000F0000000000000000000000000000000000000
:0C01000000000000000000005FF808F1A3
:10010C0010B5054C237833B9044B13B10448AFF345
:10011C0000800123237010BD30000020000000007F
:10012C00282A000808B5034B1BB103490348AFF359
:10013C00008008BD0000000034000020282A0008C0
:10014C0080B483B000AF164B00221A60154B00220E
:10015C001A60154B00221A6000237B6016E0134ACC
:10016C007B68012142F82310114A7B68012142F877
:10017C002310104A7B68012142F823100E4A7B6839
:10018C00012142F823107B6801337B607B68022BD2
:10019C00E5DD00BF00BF0C37BD4680BC704700BF1B
:1001AC00A4000020A000002078000020880000207F
:1001BC0094000020A80000207C00002080B400AF38
:1001CC00064B1B68012B04D1044B00221A6001233F
:1001DC0000E000231846BD4680BC7047A4000020F8
:1001EC0080B400AF064B1B68012B04D1044B0022DA
:1001FC001A60012300E000231846BD4680BC7047FE
:10020C00A000002080B400AF064B1B68012B04D16A
:10021C00044B00221A60012300E000231846BD465F
:10022C0080BC70477800002080B582B000AF0023FE
:10023C007B6090E04C4A7B6852F823204B497B68EA
:10024C0041F823204A4A7B6852F8232046497B68B0
:10025C0041F823207B68002B0AD10221454801F08C
:10026C00A5FB03461946424A7B6842F823101AE064
:10027C007B68012B0AD104213E4801F097FB034611
:10028C0019463B4A7B6842F823100CE07B68022B32
:10029C0009D10821374801F089FB03461946344A35
:1002AC007B6842F82310314A7B6852F823202E4990
:1002BC007B6851F823309A424AD12B4A7B6852F81A
:1002CC0023202B497B6851F823309A4240D12A4A8B
:1002DC007B6852F8232026497B6851F823309A42D8
:1002EC0025D0234A7B6852F8232023497B6841F8A8
:1002FC0023201F4A7B6852F82330002B28D17B68BF
:10030C00002B03D11D4B01221A600CE07B68012BE2
:10031C0003D11B4B01221A6005E07B68022B02D132
:10032C00184B01221A60184BC8221A6010E0164BA9
:10033C001B68013B144A1360134B1B68002B07D13D
:10034C000D4A7B68012142F823100F4BC8221A601A
:10035C007B6801337B607B68022B7FF76BAF00BF40
:10036C0000BF0837BD4680BD9400002088000020E7
:10037C00A8000020000801407C000020A400002000
:10038C00A0000020780000200000002080B500AF05
:10039C009B4B1B78042B00F2E98201A252F823F04C
:1003AC00C10300081B040008D9050008F106000869
:1003BC00C7070008934B1B68012B04D1FFF734FFD0
:1003CC000A2000F0EBFEFFF7F9FE0346012B06D1E5
:1003DC008B4B01221A708C4B00221A60D1E28B4B92
:1003EC001B68012B40F0C482874B1B68032B02DD7A
:1003FC00854B00221A60844B1B685A1C82490A6088
:10040C00184600F07BFCFA2000F090FEB0E27D4B29
:10041C001B68012B04D1FFF707FF0A2000F0BEFE7A
:10042C00FFF7CCFE0346012B11D1754B02221A703B
:10043C00774B1B68774A1360402000F01BFD4FF48C
:10044C00007000F017FD704B00221A6099E2724B9D
:10045C001B68012B40F0A280704B1B68002B3DD118
:10046C006F4B1B68002B10D1402000F0F1FC1020CA
:10047C0000F000FD202000F0FDFC694B02221A6008
:10048C00634B1B68654A136028E0654B1B68012BA6
:10049C0010D1402000F0EEFC202000F0D9FC102000
:1004AC0000F0E8FC5E4B00221A605E4B1B685B4A56
:1004BC00136013E05A4B1B68022B0FD1402000F045
:1004CC00D9FC202000F0D6FC102000F0C1FC544BCD
:1004DC0001221A60544B1B68504A1360534B1B6823
:1004EC00002B43D1524B1B68002B12D14FF40070E0
:1004FC0000F0AEFC802000F0BDFC4FF4807000F0EA
:10050C00B9FC4B4B02221A60414B1B68474A1360E3
:10051C002CE0474B1B68012B12D14FF4007000F0FC
:10052C00A9FC4FF4807000F093FC802000F0A2FC3A
:10053C003F4B00221A603B4B1B683C4A136015E092
:10054C003B4B1B68022B11D14FF4007000F092FC56
:10055C004FF4807000F08EFC802000F079FC344B5E
:10056C0001221A60304B1B68304A13602B4B1B68FE
:10057C00013B2A4A13602D4B1B68013B2B4A13602D
:10058C00264B1B682B4A1360284B1B682A4A1360A6
:10059C0000F006FC4FF47A7000F0E4FD1B4B1B6876
:1005AC00012B40F0E781184B1B68032B02DD164B27
:1005BC0000221A60144B1B685A1C13490A60184617
:1005CC0000F09CFBFA2000F0B1FDD3E10D4B1B6851
:1005DC00012B04D1FFF728FE0A2000F0DFFDFFF706
:1005EC00EDFD0346012B2BD1054B03221A700D4B4D
:1005FC001B68124A1360044B00221A60C1E100BF51
:10060C004C000020740000205C00002064000020DE
:10061C0008000020BC0000206C00002054000020CA
:10062C0050000020100000200C000020580000207A
:10063C0004000020C4000020C0000020B8000020EE
:10064C00FFF7CEFD0346012B13D18F4B1B68002BFC
:10065C0008DD8D4B1B68632B04DC8B4B1B68013353
:10066C00894A1360884B1B68632B02DD864B012281
:10067C001A60FFF7C7FD0346012B03D1824B1B68A1
:10068C00824A1360102000F0F5FB802000F0F2FB92
:10069C00202000F0EFFB4FF4807000F0EBFB7C4B64
:1006AC0002221A60784B1B687A4A136000F078FBC0
:1006BC00794B1B68012B40F05F81784B1B68032B37
:1006CC0002DD764B00221A60744B1B685A1C73496E
:1006DC000A60184600F012FBFA2000F027FD00F02B
:1006EC00DBFB49E16E4B1B68012B04D1FFF79CFD32
:1006FC000A2000F053FDFFF761FD0346012B0AD1E0
:10070C00684B04221A70684B1B68684A1360634B71
:10071C0000221A6035E1FFF763FD0346012B13D16C
:10072C00634B1B68002B08DD614B1B68632B04DCDF
:10073C005F4B1B6801335E4A13605D4B1B68632B78
:10074C0002DD5B4B01221A60FFF75CFD0346012BB7
:10075C0003D1574B1B68574A1360402000F08AFBAB
:10076C004FF4007000F086FB102000F083FB80201B
:10077C0000F080FB464B03221A604D4B1B68454A28
:10078C00136000F00DFB444B1B68012B40F0F6800E
:10079C00424B1B68032B02DD404B00221A603F4B7F
:1007AC001B685A1C3D490A60184600F0A7FAFA204B
:1007BC0000F0BCFC00F08EFBE0E0394B1B68012B19
:1007CC0004D1FFF731FD0A2000F0E8FCFFF7F6FC3E
:1007DC000346012B78D1344B1A68364B1B681A44EC
:1007EC002A4B1B689A4217D12E4B01221A704020BB
:1007FC0000F040FB4FF4007000F03CFB102000F0C8
:10080C0039FB802000F036FB202000F033FB4FF446
:10081C00807000F02FFB27E0224B00221A701B4B3C
:10082C0005221A60204B03221A60224B02221A6006
:10083C00174B58221A60174B58221A6000F0B0FA66
:10084C00402000F005FB4FF4007000F001FB10207D
:10085C0000F0FEFA802000F0FBFA202000F0F8FAFD
:10086C004FF4807000F0F4FA134B00221A60134B13
:10087C0000221A60124B00221A60124B02221A60DC
:10088C00064B00221A607CE0BC000020080000200F
:10089C00C4000020C0000020640000205C00002088
:1008AC00740000204C0000200C000020B40000203C
:1008BC00B800002010000020540000205800002038
:1008CC005000002004000020FFF78AFC0346012B97
:1008DC0013D12D4B1B68002B08DD2B4B1B68632B96
:1008EC0004DC294B1B680133274A1360264B1B6819
:1008FC00632B02DD244B01221A60FFF783FC0346B5
:10090C00012B03D1204B1B68204A1360402000F0C0
:10091C00B1FA4FF4007000F0ADFA202000F0AAFA02
:10092C004FF4807000F0A6FA194B04221A60164B93
:10093C001B68184A136000F033FA174B1B68012B25
:10094C001ED1164B1B68032B02DD144B00221A60C0
:10095C00124B1B685A1C11490A60184600F0CEF95C
:10096C00FA2000F0E3FB00F0A7FA09E000BF08E072
:10097C0000BF06E000BF04E000BF02E000BF00E0E3
:10098C0000BF00BF80BD00BFB40000200C000020E1
:10099C00C4000020C0000020640000205C00002087
:1009AC0080B582B000AF78607B68002B23D1002229
:1009BC000121C24801F011F800220221BF4801F0C8
:1009CC000CF800220421BD4801F007F80022082190
:1009DC00BA4801F002F800221021B84800F0FDFFDF
:1009EC0000222021B54800F0F8FF01224021B34835
:1009FC0000F0F3FF5DE17B68012B23D10122012183
:100A0C00AE4800F0EAFF00220221AC4800F0E5FFFE
:100A1C0000220421A94800F0E0FF01220821A74888
:100A2C0000F0DBFF01221021A44800F0D6FF0122C8
:100A3C002021A24800F0D1FF012240219F4800F064
:100A4C00CCFF36E17B68022B23D1002201219B488D
:100A5C0000F0C3FF00220221984800F0BEFF0122E3
:100A6C000421964800F0B9FF00220821934800F0B9
:100A7C00B4FF00221021914800F0AFFF0122202189
:100A8C008E4800F0AAFF002240218C4800F0A5FF00
:100A9C000FE17B68032B23D100220121874800F052
:100AAC009CFF00220221854800F097FF00220421C0
:100ABC00824800F092FF00220821804800F08DFF50
:100ACC00012210217D4800F088FF012220217B4863
:100ADC0000F083FF00224021784800F07EFFE8E020
:100AEC007B68042B23D101220121744800F075FF8F
:100AFC0000220221714800F070FF002204216F488F
:100B0C0000F06BFF012208216C4800F066FF012207
:100B1C0010216A4800F061FF00222021674800F094
:100B2C005CFF00224021654800F057FFC1E07B6864
:100B3C00052B23D100220121604800F04EFF012239
:100B4C0002215E4800F049FF002204215B4800F0BE
:100B5C0044FF00220821594800F03FFF01221021D8
:100B6C00564800F03AFF00222021544800F035FF8F
:100B7C0000224021514800F030FF9AE07B68062BA0
:100B8C0023D1002201214D4800F027FF0122022130
:100B9C004A4800F022FF00220421484800F01DFFC3
:100BAC0000220821454800F018FF0022102143487C
:100BBC0000F013FF00222021404800F00EFF00221D
:100BCC0040213E4800F009FF73E07B68072B23D1DE
:100BDC0000220121394800F000FF00220221374891
:100BEC0000F0FBFE00220421344800F0F6FE012246
:100BFC000821324800F0F1FE012210212F4800F0AC
:100C0C00ECFE012220212D4800F0E7FE01224021BC
:100C1C002A4800F0E2FE4CE07B68082B23D100222E
:100C2C000121264800F0D9FE00220221234800F0C1
:100C3C00D4FE00220421214800F0CFFE002208211E
:100C4C001E4800F0CAFE002210211C4800F0C5FE10
:100C5C0000222021194800F0C0FE00224021174834
:100C6C0000F0BBFE25E07B68092B22D1002201217C
:100C7C00124800F0B2FE00220221104800F0ADFE36
:100C8C00002204210D4800F0A8FE002208210B4888
:100C9C0000F0A3FE01221021084800F09EFE002265
:100CAC002021064800F099FE00224021034800F064
:100CBC0094FE00BF0837BD4680BD00BF000C01404C
:100CCC0080B500AF012280210B4800F086FE012286
:100CDC004FF48071084800F080FE01224FF400713F
:100CEC00054800F07AFE01224FF48061024800F0C2
:100CFC0074FE00BF80BD00BF000C014080B582B007
:100D0C0000AF78607B68032B41D801A252F823F026
:100D1C002D0D0008470D0008630D00087F0D00081D
:100D2C00FFF7CEFF002280211B4800F056FE1B4B24
:100D3C001B681846FFF734FE2AE0FFF7C1FF0022BC
:100D4C004FF48071144800F048FE144B5B68184651
:100D5C00FFF726FE1CE0FFF7B3FF00224FF40071F3
:100D6C000D4800F03AFE0D4B9B681846FFF718FE35
:100D7C000EE0FFF7A5FF00224FF48061064800F05B
:100D8C002CFE064BDB681846FFF70AFE00E000BF9E
:100D9C0000BF0837BD4680BD000C01401400002088
:100DAC0080B400AF264B1B68092B07DC254B0022B7
:100DBC001A60234B1B68234A536018E0204B1B68B6
:100DCC00214A82FB03129210DB17D31A1D4A1360BF
:100DDC001B4B19681C4B83FB01239A10CB17D21A9F
:100DEC0013469B0013445B00CA1A164B5A60174BF0
:100DFC001B68092B07DC134B00229A60134B1B68F2
:100E0C00104AD36018E0114B1B680F4A82FB031287
:100E1C009210DB17D31A0B4A93600C4B19680A4BD0
:100E2C0083FB01239A10CB17D21A13469B00134451
:100E3C005B00CA1A034BDA6000BFBD4680BC70472A
:100E4C00C40000201400002067666666C000002005
:100E5C0080B582B000AF78607B689BB200221946E7
:100E6C00034800F0BAFD00BF0837BD4680BD00BF87
:100E7C000008014080B582B000AF78607B689BB2FF
:100E8C0001221946034800F0A8FD00BF0837BD46F3
:100E9C0080BD00BF0008014080B500AF402105486F
:100EAC0000F0B3FD4FF40071024800F0AEFD00BF3E
:100EBC0080BD00BF0008014080B500AF1021044880
:100ECC0000F0A3FD8021024800F09FFD00BF80BD13
:100EDC000008014080B500AF2021054800F095FDC9
:100EEC004FF48071024800F090FD00BF80BD00BF40
:100EFC000008014080B500AF00F06EFA00F018F861
:100F0C0000F09EF800F050F8084801F0C3F9FFF724
:100F1C0017F9FA2000F00AF94FF47A7000F022F970
:100F2C000A2000F03BF9FFF731FAFCE7C80000207B
:100F3C0080B590B000AF07F11803282200211846A5
:100F4C0001F064FD3B1D00221A605A609A60DA6061
:100F5C001A610223BB610123BB621023FB620023D5
:100F6C007B6307F11803184600F068FD0346002B5D
:100F7C0001D000F0D5F80F237B600023BB60002369
:100F8C00FB6000233B6100237B613B1D0021184665
:100F9C0000F0D4FF0346002B01D000F0C1F800BFD5
:100FAC004037BD4680BD000080B586B000AF07F16C
:100FBC00080300221A605A609A60DA603B460022ED
:100FCC001A605A601D4B4FF080421A601B4B41F661
:100FDC003F725A60194B00229A60184B0922DA6052
:100FEC00164B00221A61154B00229A61134801F02E
:100FFC0001F90346002B01D000F092F84FF4805316
:10100C00BB6007F1080319460C4801F097FA034638
:10101C00002B01D000F084F800233B6000237B60A0
:10102C003B461946054801F063FC0346002B01D0F2
:10103C0000F076F800BF1837BD4680BDC800002010
:10104C0080B586B000AF07F1080300221A605A6021
:10105C009A60DA60284B9B69274A43F0040393613A
:10106C00254B9B6903F004037B607B68224B9B69D7
:10107C00214A43F0080393611F4B9B6903F008035B
:10108C003B603B6800224FF47C711C4800F0A5FCCF
:10109C00002240F2FF711A4800F09FFC0E23BB6047
:1010AC000023FB6001233B6107F108031946134839
:1010BC0000F002FB4FF47C73BB600123FB60002348
:1010CC003B6102237B6107F1080319460B4800F0D2
:1010DC00F3FA40F2FF73BB600123FB6000233B611A
:1010EC0002237B6107F108031946054800F0E4FA76
:1010FC0000BF1837BD4680BD0010024000080140FB
:10110C00000C014080B582B000AF786000F062F84E
:10111C0000F07AF800F092F800BF0837BD4680BDA9
:10112C0080B400AF72B600BFFEE7000080B483B09D
:10113C0000AF78607B68084A82FB03129210DB17C1
:10114C00D31A064A1360064B00221A6000BF0C37F4
:10115C00BD4680BC704700BF6766666660000020B5
:10116C006400002080B483B000AF78607B68084ACC
:10117C0082FB03129210DB17D31A064A1360064B3C
:10118C0000221A6000BF0C37BD4680BC704700BF00
:10119C0067666666680000206C00002080B483B02F
:1011AC0000AF78607B68084A82FB03129210DB1751
:1011BC00D31A064A1360064B00221A6000BF0C3784
:1011CC00BD4680BC704700BF676666667000002035
:1011DC007400002080B400AF094B1B68002B0BDDA2
:1011EC00074B1B68013B064A1360054B1B68002B21
:1011FC0002DC044B01221A6000BFBD4680BC704764
:10120C00600000206400002080B400AF094B1B6814
:10121C00002B0BDD074B1B68013B064A1360054B8B
:10122C001B68002B02DC044B01221A6000BFBD4678
:10123C0080BC7047680000206C00002080B400AFB8
:10124C00094B1B68002B0BDD074B1B68013B064A47
:10125C001360054B1B68002B02DC044B01221A6047
:10126C0000BFBD4680BC7047700000207400002099
:10127C0080B485B000AF154B9B69144A43F0010351
:10128C009361124B9B6903F00103BB60BB680F4B6E
:10129C00DB690E4A43F08053D3610C4BDB6903F0DE
:1012AC0080537B607B680A4B5B68FB60FB6823F0B8
:1012BC00E063FB60FB6843F08063FB60044AFB68FF
:1012CC00536000BF1437BD4680BC7047001002400D
:1012DC000000014080B584B000AF78607B681B686B
:1012EC00B3F1804F13D10C4BDB690B4A43F0010374
:1012FC00D361094BDB6903F00103FB60FB6800223F
:10130C0000211C2000F0A1F91C2000F0BAF900BF4C
:10131C001037BD4680BD00BF0010024080B400AF46
:10132C00FEE780B400AFFEE780B400AFFEE780B408
:10133C0000AFFEE780B400AFFEE780B400AF00BFA3
:10134C00BD4680BC704780B400AF00BFBD4680BCBA
:10135C00704780B400AF00BFBD4680BC704780B5FD
:10136C0000AF00F07FF800BF80BD000080B500AF7B
:10137C00024800F0DBFF00BF80BD00BFC8000020AA
:10138C0080B400AF00BFBD4680BC7047FFF7F8FFCC
:10139C000B480C490C4A002302E0D458C4500433C7
:1013AC00C4188C42F9D3094A094C002301E013609C
:1013BC000432A242FBD301F005FBFFF79BFD704703
:1013CC0000000020300000206C2A000830000020B3
:1013DC0014010020FEE7000080B500AF084B1B682D
:1013EC00074A43F010031360032000F023F90F2089
:1013FC0000F008F8FFF73CFF0023184680BD00BF43
:10140C000020024080B582B000AF7860124B1A68A1
:10141C00124B1B7819464FF47A73B3FBF1F3B2FB02
:10142C00F3F3184600F03BF90346002B01D00123DF
:10143C000EE07B680F2B0AD8002279684FF0FF3042
:10144C0000F003F9064A7B681360002300E00123D7
:10145C0018460837BD4680BD240000202C00002013
:10146C002800002080B400AF054B1B781A46054BB2
:10147C001B681344034A136000BFBD4680BC704711
:10148C002C0000201001002080B400AF024B1B6820
:10149C001846BD4680BC70471001002080B485B052
:1014AC0000AF78607B6803F00703FB600C4BDB68D4
:1014BC00BB60BA684FF6FF031340BB60FB681A02AF
:1014CC00BB68134343F0BF6343F40033BB60044A6F
:1014DC00BB68D36000BF1437BD4680BC704700BFEB
:1014EC0000ED00E080B400AF044BDB681B0A03F096
:1014FC0007031846BD4680BC704700BF00ED00E0F6
:10150C0080B483B000AF0346FB7197F90730002B12
:10151C000BDBFB7903F01F02064997F907305B09D7
:10152C00012000FA02F241F8232000BF0C37BD461F
:10153C0080BC704700E100E080B483B000AF03468C
:10154C003960FB7197F90730002B0ADB3B68DAB284
:10155C000C4997F907301201D2B20B4483F80023DF
:10156C000AE03B68DAB20849FB7903F00F03043B4D
:10157C001201D2B20B441A7600BF0C37BD4680BCA8
:10158C00704700BF00E100E000ED00E080B489B0DE
:10159C0000AFF860B9607A60FB6803F00703FB6189
:1015AC00FB69C3F10703042B28BF0423BB61FB6950
:1015BC000433062B02D9FB69033B00E000237B615B
:1015CC004FF0FF32BB6902FA03F3DA43BB681A40EF
:1015DC007B699A404FF0FF317B6901FA03F3D943E1
:1015EC007B680B40134318462437BD4680BC7047BC
:1015FC0080B582B000AF78607B68013BB3F1807F2F
:10160C0001D301230FE00A4A7B68013B53600F2191
:10161C004FF0FF30FFF790FF054B00229A60044B10
:10162C0007221A60002318460837BD4680BD00BF4C
:10163C0010E000E080B582B000AF78607868FFF70A
:10164C002DFF00BF0837BD4680BD80B586B000AF0A
:10165C000346B9607A60FB7300237B61FFF742FF9E
:10166C0078617A68B9687869FFF790FF024697F954
:10167C000F3011461846FFF75FFF00BF1837BD4605
:10168C0080BD80B582B000AF0346FB7197F907307F
:10169C001846FFF735FF00BF0837BD4680BD80B543
:1016AC0082B000AF78607868FFF7A2FF0346184657
:1016BC000837BD4680BD000080B48BB000AF7860A9
:1016CC00396000237B6200233B6248E101227B6A84
:1016DC0002FA03F3FB613B681B68FA691340BB61B8
:1016EC00BA69FB699A4240F037813B685B68A34A50
:1016FC0093425ED0A14A934275D8A14A934258D0E6
:10170C009F4A93426FD89F4A934252D09D4A93422C
:10171C0069D89D4A93424CD09B4A934263D89B4ACA
:10172C00934246D0994A93425DD8122B2AD8122B59
:10173C0059D801A252F823F0BF17000899170008D6
:10174C00AB170008ED170008F3170008F317000893
:10175C00F3170008F3170008F3170008F317000835
:10176C00F3170008F3170008F3170008F317000825
:10177C00F3170008F3170008F3170008A117000867
:10178C00B5170008824A934213D02CE03B68DB6803
:10179C003B6229E03B68DB6804333B6224E03B6836
:1017AC00DB6808333B621FE03B68DB680C333B6251
:1017BC001AE03B689B68002B02D104233B6213E0C8
:1017CC003B689B68012B05D108233B627B68FA6957
:1017DC001A6109E008233B627B68FA695A6103E0ED
:1017EC0000233B6200E000BFBB69FF2B01D87B6884
:1017FC0001E07B6804337B61BB69FF2B02D87B6AF9
:10180C009B0002E07B6A083B9B003B617B691A688A
:10181C000F213B6901FA03F3DB431A40396A3B6938
:10182C0001FA03F31A437B691A603B685B6803F0A7
:10183C008053002B00F09080564B9B69554A43F027
:10184C0001039361534B9B6903F00103BB60BB68BD
:10185C00514A7B6A9B08023352F82330FB607B6A47
:10186C0003F003039B000F2202FA03F3DB43FA6835
:10187C001340FB607B68494A93420DD07B68484A11
:10188C00934207D07B68474A934201D1022304E07C
:10189C00032302E0012300E000237A6A02F0030232
:1018AC0092009340FA681343FB603B497B6A9B08A8
:1018BC000233FA6841F823203B685B6803F4801319
:1018CC00002B06D0384B9A683749BB6913438B60A1
:1018DC0006E0354B9A68BB69DB43334913408B6098
:1018EC003B685B6803F40013002B06D02E4BDA68C0
:1018FC002D49BB691343CB6006E02B4BDA68BB69FF
:10190C00DB4329491340CB603B685B6803F400332D
:10191C00002B06D0244B5A682349BB6913434B60F8
:10192C0006E0214B5A68BB69DB431F4913404B60EF
:10193C003B685B6803F48033002B06D01A4B1A68A3
:10194C001949BB6913430B6006E0174B1A68BB6956
:10195C00DB43154913400B607B6A01337B623B68A8
:10196C001A687B6A22FA03F3002B7FF4AFAE00BF38
:10197C0000BF2C37BD4680BC704700BF0000321042
:10198C000000311000002210000021100000121085
:10199C00000011100010024000000140000801403E
:1019AC00000C0140001001400004014080B485B0DF
:1019BC0000AF78600B467B807B689A687B8813400D
:1019CC00002B02D00123FB7301E00023FB73FB7B94
:1019DC0018461437BD4680BC704780B483B000AF46
:1019EC0078600B467B8013467B707B78002B03D092
:1019FC007A887B681A6103E07B881A047B681A6119
:101A0C0000BF0C37BD4680BC704780B485B000AFBA
:101A1C0078600B467B807B68DB68FB607A88FB68B0
:101A2C0013401A04FB68D9437B880B401A437B682C
:101A3C001A6100BF1437BD4680BC704780B586B0B4
:101A4C0000AF78607B68002B01D101236CE27B68CE
:101A5C001B6803F00103002B00F08780924B5B683E
:101A6C0003F00C03042B0CD08F4B5B6803F00C03BE
:101A7C00082B12D18C4B5B6803F48033B3F5803F99
:101A8C000BD1894B1B6803F40033002B6CD07B68A3
:101A9C005B68002B68D1012346E27B685B68B3F579
:101AAC00803F06D1804B1B687F4A43F48033136020
:101ABC002EE07B685B68002B0CD17B4B1B687A4A51
:101ACC0023F480331360784B1B68774A23F480230C
:101ADC0013601DE07B685B68B3F5A02F0CD1724BD3
:101AEC001B68714A43F4802313606F4B1B686E4A6A
:101AFC0043F4803313600BE06B4B1B686A4A23F48E
:101B0C0080331360684B1B68674A23F4802313608F
:101B1C007B685B68002B13D0FFF7B6FC386108E0DC
:101B2C00FFF7B2FC02463B69D31A642B01D903239D
:101B3C00FAE15D4B1B6803F40033002BF0D014E08A
:101B4C00FFF7A2FC386108E0FFF79EFC02463B69F8
:101B5C00D31A642B01D90323E6E1534B1B6803F41E
:101B6C000033002BF0D100E000BF7B681B6803F052
:101B7C000203002B63D04C4B5B6803F00C03002B6F
:101B8C000BD0494B5B6803F00C03082B1CD1464B64
:101B9C005B6803F48033002B16D1434B1B6803F0B6
:101BAC000203002B05D07B681B69012B01D001239C
:101BBC00BAE13D4B1B6823F0F8027B685B69DB00E4
:101BCC00394913430B603AE07B681B69002B20D02A
:101BDC00364B01221A60FFF757FC386108E0FFF71B
:101BEC0053FC02463B69D31A022B01D903239BE118
:101BFC002D4B1B6803F00203002BF0D02A4B1B6803
:101C0C0023F0F8027B685B69DB00274913430B6008
:101C1C0015E0264B00221A60FFF736FC386108E00D
:101C2C00FFF732FC02463B69D31A022B01D903237E
:101C3C007AE11D4B1B6803F00203002BF0D17B688B
:101C4C001B6803F00803002B3AD07B689B69002BC0
:101C5C0019D0174B01221A60FFF716FC386108E007
:101C6C00FFF712FC02463B69D31A022B01D903235E
:101C7C005AE10D4B5B6A03F00203002BF0D00120FC
:101C8C0000F09AFA1CE00A4B00221A60FFF7FCFBEA
:101C9C0038610FE0FFF7F8FB02463B69D31A022BC1
:101CAC0008D9032340E100BF00100240000042426B
:101CBC00800442429E4B5B6A03F00203002BE9D185
:101CCC007B681B6803F00403002B00F0A680002344
:101CDC00FB75974BDB6903F08053002B0DD1944BB4
:101CEC00DB69934A43F08053D361914BDB6903F07A
:101CFC008053BB60BB680123FB758E4B1B6803F4E0
:101D0C008073002B18D18B4B1B688A4A43F4807369
:101D1C001360FFF7B9FB386108E0FFF7B5FB02462B
:101D2C003B69D31A642B01D90323FDE0814B1B685B
:101D3C0003F48073002BF0D07B68DB68012B06D199
:101D4C007B4B1B6A7A4A43F0010313622DE07B68DC
:101D5C00DB68002B0CD1764B1B6A754A23F0010310
:101D6C001362734B1B6A724A23F0040313621CE068
:101D7C007B68DB68052B0CD16D4B1B6A6C4A43F0FE
:101D8C00040313626A4B1B6A694A43F00103136232
:101D9C000BE0674B1B6A664A23F001031362644B2A
:101DAC001B6A634A23F0040313627B68DB68002B15
:101DBC0015D0FFF769FB38610AE0FFF765FB0246B7
:101DCC003B69D31A41F28832934201D90323ABE029
:101DDC00574B1B6A03F00203002BEED014E0FFF705
:101DEC0053FB38610AE0FFF74FFB02463B69D31AFD
:101DFC0041F28832934201D9032395E04C4B1B6A84
:101E0C0003F00203002BEED1FB7D012B05D1484BD7
:101E1C00DB69474A23F08053D3617B68DB69002B75
:101E2C0000F08180424B5B6803F00C03082B61D0FF
:101E3C007B68DB69022B46D13F4B00221A60FFF70F
:101E4C0023FB386108E0FFF71FFB02463B69D31AFE
:101E5C00022B01D9032367E0354B1B6803F0007399
:101E6C00002BF0D17B681B6AB3F5803F08D1304B57
:101E7C005B6823F400327B689B682D4913434B60ED
:101E8C002B4B5B6823F474127B68196A7B685B6A62
:101E9C000B43274913434B60274B01221A60FFF772
:101EAC00F3FA386108E0FFF7EFFA02463B69D31A00
:101EBC00022B01D9032337E01D4B1B6803F0007381
:101ECC00002BF0D02FE01C4B00221A60FFF7DCFA3D
:101EDC00386108E0FFF7D8FA02463B69D31A022BA7
:101EEC0001D9032320E0124B1B6803F00073002B75
:101EFC00F0D118E07B68DB69012B01D1012313E0E1
:101F0C000B4B5B68FB60FB6803F480327B681B6ADD
:101F1C009A4206D1FB6803F470127B685B6A9A42A2
:101F2C0001D0012300E0002318461837BD4680BDC0
:101F3C0000100240007000406000424280B584B046
:101F4C0000AF786039607B68002B01D10123D0E0B1
:101F5C006A4B1B6803F007033A689A4210D9674B27
:101F6C001B6823F0070265493B6813430B60634B06
:101F7C001B6803F007033A689A4201D00123B8E0CA
:101F8C007B681B6803F00203002B20D07B681B6866
:101F9C0003F00403002B05D0594B5B68584A43F4FB
:101FAC00E06353607B681B6803F00803002B05D0CB
:101FBC00534B5B68524A43F460535360504B5B681D
:101FCC0023F0F0027B689B684D4913434B607B68A0
:101FDC001B6803F00103002B40D07B685B68012B6E
:101FEC0007D1474B1B6803F40033002B15D1012399
:101FFC007FE07B685B68022B07D1414B1B6803F0C9
:10200C000073002B09D1012373E03D4B1B6803F0D7
:10201C000203002B01D101236BE0394B5B6823F0E9
:10202C0003027B685B68364913434B60FFF72CFA5D
:10203C00F8600AE0FFF728FA0246FB68D31A41F26F
:10204C008832934201D9032353E02D4B5B6803F094
:10205C000C027B685B689B009A42EBD1274B1B6898
:10206C0003F007033A689A4210D2244B1B6823F002
:10207C00070222493B6813430B60204B1B6803F09B
:10208C0007033A689A4201D0012332E07B681B684F
:10209C0003F00403002B08D0194B5B6823F4E062B7
:1020AC007B68DB68164913434B607B681B6803F045
:1020BC000803002B09D0124B5B6823F460527B6839
:1020CC001B69DB000E4913434B6000F021F80246FC
:1020DC000B4B5B681B0903F00F030A49CB5C22FA1C
:1020EC0003F3094A1360094B1B681846FFF78AF97A
:1020FC00002318461037BD4680BD00BF00200240AB
:10210C0000100240402A0008240000202800002073
:10211C0080B487B000AF0023FB600023BB600023BA
:10212C007B6100237B6000233B611E4B5B68FB6083
:10213C00FB6803F00C03042B02D0082B03D027E020
:10214C00194B3B6127E0FB689B0C03F00F03174A0C
:10215C00D35C7B60FB6803F48033002B10D0114BF5
:10216C005B685B0C03F00103114AD35CBB607B68BA
:10217C000D4A02FB03F2BB68B2FBF3F37B6104E094
:10218C007B680C4A02FB03F37B617B693B6102E0D9
:10219C00054B3B6100BF3B6918461C37BD4680BCF4
:1021AC00704700BF0010024000127A00502A00084D
:1021BC00602A000800093D0080B485B000AF78604B
:1021CC000A4B1B680A4AA2FB03235B0A7A6802FBD0
:1021DC0003F3FB6000BFFB685A1EFA60002BF9D1B9
:1021EC0000BF00BF1437BD4680BC704724000020E0
:1021FC00D34D621080B582B000AF78607B68002B45
:10220C0001D1012341E07B6893F83D30DBB2002B18
:10221C0006D17B68002283F83C207868FFF75AF8D7
:10222C007B68022283F83D207B681A687B68043344
:10223C001946104600F06EFA7B68012283F846209E
:10224C007B68012283F83E207B68012283F83F20C3
:10225C007B68012283F840207B68012283F84120AF
:10226C007B68012283F842207B68012283F843209B
:10227C007B68012283F844207B68012283F8452087
:10228C007B68012283F83D20002318460837BD46A1
:10229C0080BD000080B485B000AF78607B6893F897
:1022AC003D30DBB2012B01D0012335E07B680222EB
:1022BC0083F83D207B681B68DA687B681B6842F0FA
:1022CC000102DA607B681B68164A934209D07B686E
:1022DC001B68B3F1804F04D07B681B68124A934291
:1022EC0011D17B681B689B6803F00703FB60FB68DC
:1022FC00062B10D07B681B681A687B681B6842F041
:10230C0001021A6007E07B681B681A687B681B680F
:10231C0042F001021A60002318461437BD4680BCF7
:10232C00704700BF002C01400004004080B582B013
:10233C0000AF78607B681B681B6903F00203022BFB
:10234C0022D17B681B68DB6803F00203022B1BD1D4
:10235C007B681B686FF002021A617B6801221A7796
:10236C007B681B689B6903F00303002B03D0786820
:10237C0000F0B4F905E0786800F0A7F9786800F08F
:10238C00B6F97B6800221A777B681B681B6903F01F
:10239C000403042B22D17B681B68DB6803F0040365
:1023AC00042B1BD17B681B686FF004021A617B68DD
:1023BC0002221A777B681B689B6903F44073002B1D
:1023CC0003D0786800F08AF905E0786800F07DF9B0
:1023DC00786800F08CF97B6800221A777B681B68A0
:1023EC001B6903F00803082B22D17B681B68DB6890
:1023FC0003F00803082B1BD17B681B686FF00802E5
:10240C001A617B6804221A777B681B68DB6903F00E
:10241C000303002B03D0786800F060F905E07868BE
:10242C0000F053F9786800F062F97B6800221A77A3
:10243C007B681B681B6903F01003102B22D17B688F
:10244C001B68DB6803F01003102B1BD17B681B6827
:10245C006FF010021A617B6808221A777B681B6880
:10246C00DB6903F44073002B03D0786800F036F975
:10247C0005E0786800F029F9786800F038F97B6895
:10248C0000221A777B681B681B6903F00103012B80
:10249C000ED17B681B68DB6803F00103012B07D1AD
:1024AC007B681B686FF001021A617868FEF72AFEE0
:1024BC007B681B681B6903F08003802B0ED17B6843
:1024CC001B68DB6803F08003802B07D17B681B68DB
:1024DC006FF080021A61786800F06BFA7B681B68F9
:1024EC001B6903F04003402B0ED17B681B68DB6833
:1024FC0003F04003402B07D17B681B686FF0400250
:10250C001A61786800F0FCF87B681B681B6903F0A3
:10251C002003202B0ED17B681B68DB6803F02003A3
:10252C00202B07D17B681B686FF020021A6178683A
:10253C0000F036FA00BF0837BD4680BD80B584B0C8
:10254C0000AF786039600023FB737B6893F83C30F4
:10255C00012B01D10223B4E07B68012283F83C20DB
:10256C007B68022283F83D207B681B689B68BB60FC
:10257C00BB6823F07703BB60BB6823F47F43BB606D
:10258C007B681B68BA689A603B681B68B3F5005F90
:10259C003ED0B3F5005F00F28780B3F5805F00F0AA
:1025AC008680B3F5805F7FD8702B1AD0702B7BD8C8
:1025BC00602B50D0602B77D8502B3CD0502B73D83D
:1025CC00402B58D0402B6FD8302B64D0302B6BD88D
:1025DC00202B60D0202B67D8002B5CD0102B5AD02E
:1025EC0062E07B6818683B6899683B685A683B688E
:1025FC00DB6800F05EF97B681B689B68BB60BB689E
:10260C0043F07703BB607B681B68BA689A604FE045
:10261C007B6818683B6899683B685A683B68DB685C
:10262C0000F047F97B681B689A687B681B6842F46A
:10263C0080429A603CE07B6818683B6859683B684C
:10264C00DB681A4600F0BEF87B681B685021184600
:10265C0000F015F92CE07B6818683B6859683B68FA
:10266C00DB681A4600F0DCF87B681B6860211846B2
:10267C0000F005F91CE07B6818683B6859683B68FA
:10268C00DB681A4600F09EF87B681B6840211846F0
:10269C0000F0F5F80CE07B681A683B681B6819467B
:1026AC00104600F0ECF803E00123FB7300E000BFE0
:1026BC007B68012283F83D207B68002283F83C2054
:1026CC00FB7B18461037BD4680BD80B483B000AF8D
:1026DC00786000BF0C37BD4680BC704780B483B0B7
:1026EC0000AF786000BF0C37BD4680BC704780B42B
:1026FC0083B000AF786000BF0C37BD4680BC70471C
:10270C0080B483B000AF786000BF0C37BD4680BC8E
:10271C007047000080B485B000AF786039607B688A
:10272C001B68FB607B68254A934207D07B68B3F13A
:10273C00804F03D07B68224A934208D1FB6823F078
:10274C007003FB603B685B68FA681343FB607B6853
:10275C001A4A934207D07B68B3F1804F03D07B6851
:10276C00174A934208D1FB6823F44073FB603B6823
:10277C00DB68FA681343FB60FB6823F080023B685C
:10278C005B691343FB607B68FA681A603B689A6864
:10279C007B68DA623B681A687B689A627B68074AD6
:1027AC00934203D13B681A697B681A637B680122E8
:1027BC005A6100BF1437BD4680BC7047002C0140E5
:1027CC000004004080B487B000AFF860B9607A6054
:1027DC00FB681B6A7B61FB681B6A23F00102FB68C8
:1027EC001A62FB689B693B613B6923F0F0033B6118
:1027FC007B681B013A6913433B617B6923F00A0335
:10280C007B617A69BB6813437B61FB683A699A61A7
:10281C00FB687A691A6200BF1C37BD4680BC7047E2
:10282C0080B487B000AFF860B9607A60FB681B6A4F
:10283C007B61FB681B6A23F01002FB681A62FB6861
:10284C009B693B613B6923F470433B617B681B03D1
:10285C003A6913433B617B6923F0A0037B61BB683E
:10286C001B017A6913437B61FB683A699A61FB68C7
:10287C007A691A6200BF1C37BD4680BC704780B4B1
:10288C0085B000AF786039607B689B68FB60FB6843
:10289C0023F07003FB603A68FB68134343F00703B3
:1028AC00FB607B68FA689A6000BF1437BD4680BC39
:1028BC00704780B487B000AFF860B9607A603B6055
:1028CC00FB689B687B617B6923F47F437B613B687E
:1028DC001A027B681A43BB6813437A6913437B6102
:1028EC00FB687A699A6000BF1C37BD4680BC704794
:1028FC0080B485B000AF786039607B6893F83C3069
:10290C00012B01D1022341E07B68012283F83C209A
:10291C007B68022283F83D207B681B685B68FB6048
:10292C007B681B689B68BB60FB6823F07003FB60D3
:10293C003B681B68FA681343FB607B681B68FA688A
:10294C005A607B681B68144A934209D07B681B68E9
:10295C00B3F1804F04D07B681B68104A93420CD1B2
:10296C00BB6823F08003BB603B685B68BA681343A9
:10297C00BB607B681B68BA689A607B68012283F82D
:10298C003D207B68002283F83C2000231846143736
:10299C00BD4680BC704700BF002C014000040040C5
:1029AC0080B483B000AF786000BF0C37BD4680BCEC
:1029BC00704780B483B000AF786000BF0C37BD4661
:1029CC0080BC704770B500260C4D0D4C641BA410D8
:1029DC00A64209D100F022F800260A4D0A4C641BCD
:1029EC00A410A64205D170BD55F8043B984701369A
:1029FC00EEE755F8043B98470136F2E7642A0008E5
:102A0C00642A0008642A0008682A00080346024465
:102A1C00934200D1704703F8011BF9E7F8B500BFEA
:102A2C00F8BC08BC9E467047F8B500BFF8BC08BCA3
:042A3C009E467047FB
:102A4000000000000000000001020304060708095E
:102A500002030405060708090A0B0C0D0E0F1010DF
:042A6000010200006F
:042A64003101000834
:042A68000D01000854
:102A6C00C800000002000000050000000300000088
:102A7C000200000008000000080000000800000030
:102A8C00080000000024F400100000000100000009
:040000050800139943
:00000001FF
